{
  "contractName": "FlightContract",
  "abi": [
    {
      "constant": false,
      "inputs": [
        {
          "name": "flightNumber",
          "type": "bytes32"
        },
        {
          "name": "departureDate",
          "type": "bytes32"
        },
        {
          "name": "_departureTime",
          "type": "uint256"
        },
        {
          "name": "_arrivalTime",
          "type": "uint256"
        }
      ],
      "name": "registerPolicy",
      "outputs": [],
      "payable": true,
      "stateMutability": "payable",
      "type": "function"
    },
    {
      "constant": true,
      "inputs": [
        {
          "name": "",
          "type": "address"
        }
      ],
      "name": "policyArrivalTime",
      "outputs": [
        {
          "name": "",
          "type": "uint256"
        }
      ],
      "payable": false,
      "stateMutability": "view",
      "type": "function"
    },
    {
      "constant": true,
      "inputs": [
        {
          "name": "",
          "type": "address"
        }
      ],
      "name": "policyHolderFlightNumber",
      "outputs": [
        {
          "name": "",
          "type": "bytes32"
        }
      ],
      "payable": false,
      "stateMutability": "view",
      "type": "function"
    },
    {
      "constant": false,
      "inputs": [
        {
          "name": "flightNumber",
          "type": "bytes32"
        },
        {
          "name": "departureDate",
          "type": "bytes32"
        },
        {
          "name": "_departureTime",
          "type": "uint256"
        },
        {
          "name": "_arrivalTime",
          "type": "uint256"
        }
      ],
      "name": "oracleCallback",
      "outputs": [],
      "payable": false,
      "stateMutability": "nonpayable",
      "type": "function"
    },
    {
      "constant": true,
      "inputs": [
        {
          "name": "",
          "type": "address"
        }
      ],
      "name": "policyDepartureTime",
      "outputs": [
        {
          "name": "",
          "type": "uint256"
        }
      ],
      "payable": false,
      "stateMutability": "view",
      "type": "function"
    },
    {
      "constant": true,
      "inputs": [
        {
          "name": "",
          "type": "address"
        }
      ],
      "name": "policyDepartureDate",
      "outputs": [
        {
          "name": "",
          "type": "bytes32"
        }
      ],
      "payable": false,
      "stateMutability": "view",
      "type": "function"
    },
    {
      "constant": true,
      "inputs": [
        {
          "name": "",
          "type": "address"
        }
      ],
      "name": "policyHolders",
      "outputs": [
        {
          "name": "",
          "type": "uint256"
        }
      ],
      "payable": false,
      "stateMutability": "view",
      "type": "function"
    },
    {
      "constant": true,
      "inputs": [],
      "name": "oracleAddr",
      "outputs": [
        {
          "name": "",
          "type": "address"
        }
      ],
      "payable": false,
      "stateMutability": "view",
      "type": "function"
    },
    {
      "constant": true,
      "inputs": [],
      "name": "owner",
      "outputs": [
        {
          "name": "",
          "type": "address"
        }
      ],
      "payable": false,
      "stateMutability": "view",
      "type": "function"
    },
    {
      "constant": false,
      "inputs": [
        {
          "name": "_newCoverage",
          "type": "uint256"
        }
      ],
      "name": "changeCoverageAmnt",
      "outputs": [
        {
          "name": "",
          "type": "uint256"
        }
      ],
      "payable": false,
      "stateMutability": "nonpayable",
      "type": "function"
    },
    {
      "constant": false,
      "inputs": [],
      "name": "disburse",
      "outputs": [],
      "payable": false,
      "stateMutability": "nonpayable",
      "type": "function"
    },
    {
      "constant": false,
      "inputs": [
        {
          "name": "flightNumber",
          "type": "bytes32"
        }
      ],
      "name": "getOracleData",
      "outputs": [],
      "payable": false,
      "stateMutability": "nonpayable",
      "type": "function"
    },
    {
      "constant": false,
      "inputs": [
        {
          "name": "_newPrice",
          "type": "uint256"
        }
      ],
      "name": "changePremium",
      "outputs": [
        {
          "name": "",
          "type": "uint256"
        }
      ],
      "payable": false,
      "stateMutability": "nonpayable",
      "type": "function"
    },
    {
      "inputs": [],
      "payable": true,
      "stateMutability": "payable",
      "type": "constructor"
    }
  ],
  "bytecode": "0x6060604052336000806101000a81548173ffffffffffffffffffffffffffffffffffffffff021916908373ffffffffffffffffffffffffffffffffffffffff1602179055506005600355603260045561093b8061005d6000396000f3006060604052600436106100c5576000357c0100000000000000000000000000000000000000000000000000000000900463ffffffff1680631358dc0a146100ca57806313eb87a714610105578063211ec8b51461015257806327c41dba146101a757806349d0afd1146101ed578063675a94831461023a57806370b68a2a1461028f5780637e4e61d7146102dc5780638da5cb5b14610331578063abbc360414610386578063abc6fd0b146103bd578063b5e4b813146103d2578063e38874d4146103f9575b600080fd5b61010360048080356000191690602001909190803560001916906020019091908035906020019091908035906020019091905050610430565b005b341561011057600080fd5b61013c600480803573ffffffffffffffffffffffffffffffffffffffff169060200190919050506105a2565b6040518082815260200191505060405180910390f35b341561015d57600080fd5b610189600480803573ffffffffffffffffffffffffffffffffffffffff169060200190919050506105ba565b60405180826000191660001916815260200191505060405180910390f35b34156101b257600080fd5b6101eb600480803560001916906020019091908035600019169060200190919080359060200190919080359060200190919050506105d2565b005b34156101f857600080fd5b610224600480803573ffffffffffffffffffffffffffffffffffffffff16906020019091905050610673565b6040518082815260200191505060405180910390f35b341561024557600080fd5b610271600480803573ffffffffffffffffffffffffffffffffffffffff1690602001909190505061068b565b60405180826000191660001916815260200191505060405180910390f35b341561029a57600080fd5b6102c6600480803573ffffffffffffffffffffffffffffffffffffffff169060200190919050506106a3565b6040518082815260200191505060405180910390f35b34156102e757600080fd5b6102ef6106bb565b604051808273ffffffffffffffffffffffffffffffffffffffff1673ffffffffffffffffffffffffffffffffffffffff16815260200191505060405180910390f35b341561033c57600080fd5b6103446106e1565b604051808273ffffffffffffffffffffffffffffffffffffffff1673ffffffffffffffffffffffffffffffffffffffff16815260200191505060405180910390f35b341561039157600080fd5b6103a76004808035906020019091905050610706565b6040518082815260200191505060405180910390f35b34156103c857600080fd5b6103d0610719565b005b34156103dd57600080fd5b6103f76004808035600019169060200190919050506108d3565b005b341561040457600080fd5b61041a60048080359060200190919050506108fc565b6040518082815260200191505060405180910390f35b60035434101561043f57600080fd5b6001600b60003373ffffffffffffffffffffffffffffffffffffffff1673ffffffffffffffffffffffffffffffffffffffff1681526020019081526020016000208190555083600c60003373ffffffffffffffffffffffffffffffffffffffff1673ffffffffffffffffffffffffffffffffffffffff168152602001908152602001600020816000191690555082600d60003373ffffffffffffffffffffffffffffffffffffffff1673ffffffffffffffffffffffffffffffffffffffff168152602001908152602001600020816000191690555081600e60003373ffffffffffffffffffffffffffffffffffffffff1673ffffffffffffffffffffffffffffffffffffffff1681526020019081526020016000208190555080600f60003373ffffffffffffffffffffffffffffffffffffffff1673ffffffffffffffffffffffffffffffffffffffff1681526020019081526020016000208190555050505050565b600f6020528060005260406000206000915090505481565b600c6020528060005260406000206000915090505481565b600160009054906101000a900473ffffffffffffffffffffffffffffffffffffffff1673ffffffffffffffffffffffffffffffffffffffff163373ffffffffffffffffffffffffffffffffffffffff1614151561062e57600080fd5b836007816000191690555082600881600019169055508160098190555080600a819055506000600560006101000a81548160ff02191690831515021790555050505050565b600e6020528060005260406000206000915090505481565b600d6020528060005260406000206000915090505481565b600b6020528060005260406000206000915090505481565b600160009054906101000a900473ffffffffffffffffffffffffffffffffffffffff1681565b6000809054906101000a900473ffffffffffffffffffffffffffffffffffffffff1681565b6000816004819055506004549050919050565b6001600b60003373ffffffffffffffffffffffffffffffffffffffff1673ffffffffffffffffffffffffffffffffffffffff1681526020019081526020016000205414151561076757600080fd5b600d60003373ffffffffffffffffffffffffffffffffffffffff1673ffffffffffffffffffffffffffffffffffffffff16815260200190815260200160002054600019166008546000191611806107fe5750600e60003373ffffffffffffffffffffffffffffffffffffffff1673ffffffffffffffffffffffffffffffffffffffff16815260200190815260200160002054600954115b806108495750600f60003373ffffffffffffffffffffffffffffffffffffffff1673ffffffffffffffffffffffffffffffffffffffff16815260200190815260200160002054600a54115b156108d1573373ffffffffffffffffffffffffffffffffffffffff166108fc6004549081150290604051600060405180830381858888f19350505050156108d0576000600b60003373ffffffffffffffffffffffffffffffffffffffff1673ffffffffffffffffffffffffffffffffffffffff168152602001908152602001600020819055505b5b565b6001600560006101000a81548160ff021916908315150217905550806006816000191690555050565b60008160038190555060035490509190505600a165627a7a723058204641a77397b65b41acbec4cf20930c7d8d2c76fdaac36f089e55833919b8270f0029",
  "source": "pragma solidity ^0.4.17;\r\n\r\ncontract FlightContract {\r\n    address public owner = msg.sender;\r\n    address public oracleAddr;\r\n    uint insurancePool;\r\n    uint premiumPrice = 5;\r\n    uint coverageAmnt = 50;\r\n    bool oracleRequest;\r\n    bytes32 requestFlightNumber;\r\n    bytes32 oracleFlightNumber;\r\n    bytes32 oracleDepartureDate;\r\n    uint256 oracleDepartureTime;\r\n    uint256 oracleArrivalTime;\r\n    mapping (address => uint) public policyHolders;\r\n    mapping (address => bytes32) public policyHolderFlightNumber;\r\n    mapping (address => bytes32) public policyDepartureDate;\r\n    mapping (address => uint) public policyDepartureTime;\r\n    mapping (address => uint) public policyArrivalTime;\r\n\r\n    modifier onlyOwner() {\r\n        require(msg.sender == owner);\r\n        _;\r\n    }\r\n\r\n    modifier onlyOracle() {\r\n        require(msg.sender == oracleAddr);\r\n        _;\r\n    }\r\n\r\n    function FlightContract() payable {\r\n\r\n    }\r\n\r\n    function registerPolicy(\r\n        bytes32 flightNumber,\r\n        bytes32 departureDate,\r\n        uint256 _departureTime,\r\n        uint256 _arrivalTime) payable {\r\n        if (msg.value < premiumPrice) {\r\n            throw;\r\n        }\r\n        policyHolders[msg.sender] = 1;\r\n        policyHolderFlightNumber[msg.sender] = flightNumber;\r\n        policyDepartureDate[msg.sender] = departureDate;\r\n        policyDepartureTime[msg.sender] = _departureTime;\r\n        policyArrivalTime[msg.sender] = _arrivalTime;\r\n    }\r\n\r\n    function changePremium(uint _newPrice) returns (uint) {\r\n        premiumPrice = _newPrice;\r\n        return premiumPrice;\r\n    }\r\n\r\n    function changeCoverageAmnt(uint _newCoverage) returns (uint) {\r\n        coverageAmnt = _newCoverage;\r\n        return coverageAmnt;\r\n    }\r\n\r\n    function disburse() {\r\n        if (policyHolders[msg.sender] != 1) {\r\n            throw;\r\n        }\r\n        if (oracleDepartureDate > policyDepartureDate[msg.sender]\r\n            || oracleDepartureTime > policyDepartureTime[msg.sender]\r\n            || oracleArrivalTime > policyArrivalTime[msg.sender]) {\r\n            if (msg.sender.send(coverageAmnt)) {\r\n                policyHolders[msg.sender] = 0;\r\n            }\r\n        }\r\n    }\r\n\r\n    function oracleCallback(\r\n        bytes32 flightNumber,\r\n        bytes32 departureDate,\r\n        uint256 _departureTime,\r\n        uint256 _arrivalTime) onlyOracle {\r\n        oracleFlightNumber = flightNumber;\r\n        oracleDepartureDate = departureDate;\r\n        oracleDepartureTime = _departureTime;\r\n        oracleArrivalTime = _arrivalTime;\r\n        oracleRequest = false;\r\n    }\r\n\r\n    function getOracleData(bytes32 flightNumber) {\r\n        oracleRequest = true;\r\n        requestFlightNumber = flightNumber;\r\n    }\r\n\r\n}",
  "sourcePath": "C:\\Users\\xwill\\blockchainProj\\FlightInsurance\\contracts\\FlightContract.sol",
  "compiler": {
    "name": "solc",
    "version": "0.4.18+commit.9cf6e910.Emscripten.clang"
  },
  "schemaVersion": "1.0.1",
  "updatedAt": "2018-01-07T22:04:37.231Z"
}